:020000000528D1
:0800080013288316D730810094
:10001000B8308B00831203019100920000309300EE
:1000200011088600102890000B1D3528121C352859
:100030001108013E9100921C35281308073C031D4E
:100040002328121035281408403C03192B281408C3
:10005000013E940035281308013E93000739D0383B
:10006000831681008312940181018B1C4228121493
:100070009210003093000739D03883168100831224
:10008000810147280B1C47289214940181010B1110
:080090008B100B101008090091
:00000001FF
